{
  "_format": "hh-sol-artifact-1",
  "contractName": "SecTool",
  "sourceName": "contracts/SecTool.sol",
  "abi": [
    {
      "inputs": [],
      "stateMutability": "nonpayable",
      "type": "constructor"
    },
    {
      "anonymous": false,
      "inputs": [
        {
          "indexed": false,
          "internalType": "string",
          "name": "transactionType",
          "type": "string"
        },
        {
          "indexed": false,
          "internalType": "address",
          "name": "userAddress",
          "type": "address"
        },
        {
          "indexed": false,
          "internalType": "uint256",
          "name": "timestamp",
          "type": "uint256"
        },
        {
          "indexed": false,
          "internalType": "string",
          "name": "status",
          "type": "string"
        }
      ],
      "name": "NewTransaction",
      "type": "event"
    },
    {
      "inputs": [
        {
          "internalType": "string",
          "name": "_fname",
          "type": "string"
        },
        {
          "internalType": "string",
          "name": "_lname",
          "type": "string"
        },
        {
          "internalType": "address",
          "name": "_proAddress",
          "type": "address"
        },
        {
          "internalType": "string",
          "name": "_organization",
          "type": "string"
        },
        {
          "internalType": "string",
          "name": "_location",
          "type": "string"
        }
      ],
      "name": "add_Pro",
      "outputs": [],
      "stateMutability": "nonpayable",
      "type": "function"
    },
    {
      "inputs": [],
      "name": "admin",
      "outputs": [
        {
          "internalType": "address",
          "name": "",
          "type": "address"
        }
      ],
      "stateMutability": "view",
      "type": "function"
    },
    {
      "inputs": [
        {
          "internalType": "string",
          "name": "_docID",
          "type": "string"
        }
      ],
      "name": "deleteDoc",
      "outputs": [],
      "stateMutability": "nonpayable",
      "type": "function"
    },
    {
      "inputs": [
        {
          "internalType": "uint256",
          "name": "",
          "type": "uint256"
        }
      ],
      "name": "documentsArray",
      "outputs": [
        {
          "internalType": "string",
          "name": "docID",
          "type": "string"
        },
        {
          "internalType": "string",
          "name": "title",
          "type": "string"
        },
        {
          "internalType": "string",
          "name": "description",
          "type": "string"
        },
        {
          "internalType": "string",
          "name": "ipfs_hash",
          "type": "string"
        },
        {
          "internalType": "uint256",
          "name": "timestamp",
          "type": "uint256"
        },
        {
          "internalType": "address",
          "name": "uploader",
          "type": "address"
        }
      ],
      "stateMutability": "view",
      "type": "function"
    },
    {
      "inputs": [
        {
          "internalType": "string",
          "name": "_docID",
          "type": "string"
        },
        {
          "internalType": "string",
          "name": "_newTitle",
          "type": "string"
        },
        {
          "internalType": "string",
          "name": "_newDescription",
          "type": "string"
        },
        {
          "internalType": "string",
          "name": "_newIpfsHash",
          "type": "string"
        }
      ],
      "name": "editDocument",
      "outputs": [],
      "stateMutability": "nonpayable",
      "type": "function"
    },
    {
      "inputs": [],
      "name": "getAllDocs",
      "outputs": [
        {
          "components": [
            {
              "internalType": "string",
              "name": "docID",
              "type": "string"
            },
            {
              "internalType": "string",
              "name": "title",
              "type": "string"
            },
            {
              "internalType": "string",
              "name": "description",
              "type": "string"
            },
            {
              "internalType": "string",
              "name": "ipfs_hash",
              "type": "string"
            },
            {
              "internalType": "uint256",
              "name": "timestamp",
              "type": "uint256"
            },
            {
              "internalType": "address",
              "name": "uploader",
              "type": "address"
            }
          ],
          "internalType": "struct SecTool.Document[]",
          "name": "",
          "type": "tuple[]"
        }
      ],
      "stateMutability": "view",
      "type": "function"
    },
    {
      "inputs": [],
      "name": "getAllTxns",
      "outputs": [
        {
          "components": [
            {
              "internalType": "string",
              "name": "transactionType",
              "type": "string"
            },
            {
              "internalType": "address",
              "name": "userAddress",
              "type": "address"
            },
            {
              "internalType": "uint256",
              "name": "timestamp",
              "type": "uint256"
            },
            {
              "internalType": "string",
              "name": "status",
              "type": "string"
            }
          ],
          "internalType": "struct SecTool.Transaction[]",
          "name": "",
          "type": "tuple[]"
        }
      ],
      "stateMutability": "view",
      "type": "function"
    },
    {
      "inputs": [
        {
          "internalType": "address",
          "name": "_proAddress",
          "type": "address"
        }
      ],
      "name": "getProTransactions",
      "outputs": [
        {
          "components": [
            {
              "internalType": "string",
              "name": "transactionType",
              "type": "string"
            },
            {
              "internalType": "address",
              "name": "userAddress",
              "type": "address"
            },
            {
              "internalType": "uint256",
              "name": "timestamp",
              "type": "uint256"
            },
            {
              "internalType": "string",
              "name": "status",
              "type": "string"
            }
          ],
          "internalType": "struct SecTool.Transaction[]",
          "name": "",
          "type": "tuple[]"
        }
      ],
      "stateMutability": "view",
      "type": "function"
    },
    {
      "inputs": [
        {
          "internalType": "address",
          "name": "add",
          "type": "address"
        }
      ],
      "name": "login",
      "outputs": [
        {
          "internalType": "string",
          "name": "",
          "type": "string"
        },
        {
          "internalType": "string",
          "name": "",
          "type": "string"
        },
        {
          "internalType": "string",
          "name": "",
          "type": "string"
        }
      ],
      "stateMutability": "view",
      "type": "function"
    },
    {
      "inputs": [
        {
          "internalType": "uint256",
          "name": "",
          "type": "uint256"
        }
      ],
      "name": "prosArray",
      "outputs": [
        {
          "internalType": "string",
          "name": "fname",
          "type": "string"
        },
        {
          "internalType": "string",
          "name": "lname",
          "type": "string"
        },
        {
          "internalType": "address",
          "name": "proAddress",
          "type": "address"
        },
        {
          "internalType": "string",
          "name": "organization",
          "type": "string"
        },
        {
          "internalType": "string",
          "name": "location",
          "type": "string"
        },
        {
          "internalType": "string",
          "name": "role",
          "type": "string"
        }
      ],
      "stateMutability": "view",
      "type": "function"
    },
    {
      "inputs": [
        {
          "internalType": "string",
          "name": "_docID",
          "type": "string"
        },
        {
          "internalType": "string",
          "name": "_title",
          "type": "string"
        },
        {
          "internalType": "string",
          "name": "_description",
          "type": "string"
        },
        {
          "internalType": "uint256",
          "name": "_timestamp",
          "type": "uint256"
        },
        {
          "internalType": "string",
          "name": "_ipfs_hash",
          "type": "string"
        }
      ],
      "name": "storeDocument",
      "outputs": [],
      "stateMutability": "nonpayable",
      "type": "function"
    },
    {
      "inputs": [
        {
          "internalType": "uint256",
          "name": "",
          "type": "uint256"
        }
      ],
      "name": "transactionsArray",
      "outputs": [
        {
          "internalType": "string",
          "name": "transactionType",
          "type": "string"
        },
        {
          "internalType": "address",
          "name": "userAddress",
          "type": "address"
        },
        {
          "internalType": "uint256",
          "name": "timestamp",
          "type": "uint256"
        },
        {
          "internalType": "string",
          "name": "status",
          "type": "string"
        }
      ],
      "stateMutability": "view",
      "type": "function"
    },
    {
      "inputs": [
        {
          "internalType": "string",
          "name": "_ipfs_hash",
          "type": "string"
        }
      ],
      "name": "verifyDocument",
      "outputs": [
        {
          "internalType": "bool",
          "name": "",
          "type": "bool"
        }
      ],
      "stateMutability": "view",
      "type": "function"
    },
    {
      "inputs": [
        {
          "internalType": "address",
          "name": "_proAddress",
          "type": "address"
        }
      ],
      "name": "viewPRODocuments",
      "outputs": [
        {
          "components": [
            {
              "internalType": "string",
              "name": "docID",
              "type": "string"
            },
            {
              "internalType": "string",
              "name": "title",
              "type": "string"
            },
            {
              "internalType": "string",
              "name": "description",
              "type": "string"
            },
            {
              "internalType": "string",
              "name": "ipfs_hash",
              "type": "string"
            },
            {
              "internalType": "uint256",
              "name": "timestamp",
              "type": "uint256"
            },
            {
              "internalType": "address",
              "name": "uploader",
              "type": "address"
            }
          ],
          "internalType": "struct SecTool.Document[]",
          "name": "",
          "type": "tuple[]"
        }
      ],
      "stateMutability": "view",
      "type": "function"
    },
    {
      "inputs": [],
      "name": "viewPROs",
      "outputs": [
        {
          "components": [
            {
              "internalType": "string",
              "name": "fname",
              "type": "string"
            },
            {
              "internalType": "string",
              "name": "lname",
              "type": "string"
            },
            {
              "internalType": "address",
              "name": "proAddress",
              "type": "address"
            },
            {
              "internalType": "string",
              "name": "organization",
              "type": "string"
            },
            {
              "internalType": "string",
              "name": "location",
              "type": "string"
            },
            {
              "internalType": "string",
              "name": "role",
              "type": "string"
            }
          ],
          "internalType": "struct SecTool.Pro[]",
          "name": "",
          "type": "tuple[]"
        }
      ],
      "stateMutability": "view",
      "type": "function"
    }
  ],
  "bytecode": "0x60806040523480156200001157600080fd5b50336000806101000a81548173ffffffffffffffffffffffffffffffffffffffff021916908373ffffffffffffffffffffffffffffffffffffffff1602179055506040518060400160405280600581526020017f61646d696e000000000000000000000000000000000000000000000000000000815250600660008060009054906101000a900473ffffffffffffffffffffffffffffffffffffffff1673ffffffffffffffffffffffffffffffffffffffff1673ffffffffffffffffffffffffffffffffffffffff1681526020019081526020016000206005019081620000f991906200037a565b5062000461565b600081519050919050565b7f4e487b7100000000000000000000000000000000000000000000000000000000600052604160045260246000fd5b7f4e487b7100000000000000000000000000000000000000000000000000000000600052602260045260246000fd5b600060028204905060018216806200018257607f821691505b6020821081036200019857620001976200013a565b5b50919050565b60008190508160005260206000209050919050565b60006020601f8301049050919050565b600082821b905092915050565b600060088302620002027fffffffffffffffffffffffffffffffffffffffffffffffffffffffffffffffff82620001c3565b6200020e8683620001c3565b95508019841693508086168417925050509392505050565b6000819050919050565b6000819050919050565b60006200025b620002556200024f8462000226565b62000230565b62000226565b9050919050565b6000819050919050565b62000277836200023a565b6200028f620002868262000262565b848454620001d0565b825550505050565b600090565b620002a662000297565b620002b38184846200026c565b505050565b5b81811015620002db57620002cf6000826200029c565b600181019050620002b9565b5050565b601f8211156200032a57620002f4816200019e565b620002ff84620001b3565b810160208510156200030f578190505b620003276200031e85620001b3565b830182620002b8565b50505b505050565b600082821c905092915050565b60006200034f600019846008026200032f565b1980831691505092915050565b60006200036a83836200033c565b9150826002028217905092915050565b620003858262000100565b67ffffffffffffffff811115620003a157620003a06200010b565b5b620003ad825462000169565b620003ba828285620002df565b600060209050601f831160018114620003f25760008415620003dd578287015190505b620003e985826200035c565b86555062000459565b601f19841662000402866200019e565b60005b828110156200042c5784890151825560018201915060208501945060208101905062000405565b868310156200044c578489015162000448601f8916826200033c565b8355505b6001600288020188555050505b505050505050565b61515d80620004716000396000f3fe608060405234801561001057600080fd5b50600436106100f55760003560e01c8063a913ff6c11610097578063e210ecee11610066578063e210ecee146102b6578063ea05b175146102e9578063f76fe34014610305578063f851a44014610323576100f5565b8063a913ff6c14610219578063beee5eb714610235578063dca4dadc14610265578063e1de036214610281576100f5565b80637435ca25116100d35780637435ca251461017a5780638a69d7001461019657806397046c21146101b45780639f786e90146101e4576100f5565b806335a6861a146100fa5780633a8e1aa41461012c5780636ee749961461014a575b600080fd5b610114600480360381019061010f9190613b78565b610341565b60405161012393929190613c35565b60405180910390f35b6101346106e1565b6040516101419190613e53565b60405180910390f35b610164600480360381019061015f9190613b78565b6109e8565b6040516101719190613fa1565b60405180910390f35b610194600480360381019061018f91906140f8565b610cd0565b005b61019e611841565b6040516101ab9190613fa1565b60405180910390f35b6101ce60048036038101906101c99190613b78565b611a24565b6040516101db9190613e53565b60405180910390f35b6101fe60048036038101906101f991906141fb565b611d6a565b60405161021096959493929190614246565b60405180910390f35b610233600480360381019061022e91906142c3565b611ff6565b005b61024f600480360381019061024a91906143ae565b612548565b60405161025c9190614412565b60405180910390f35b61027f600480360381019061027a919061442d565b6125cd565b005b61029b600480360381019061029691906141fb565b6128bc565b6040516102ad96959493929190614518565b60405180910390f35b6102d060048036038101906102cb91906141fb565b612bd0565b6040516102e0949392919061459c565b60405180910390f35b61030360048036038101906102fe91906143ae565b612d40565b005b61030d61358f565b60405161031a9190614756565b60405180910390f35b61032b61391e565b6040516103389190614778565b60405180910390f35b60608060606000600660008673ffffffffffffffffffffffffffffffffffffffff1673ffffffffffffffffffffffffffffffffffffffff1681526020019081526020016000206040518060c00160405290816000820180546103a2906147c2565b80601f01602080910402602001604051908101604052809291908181526020018280546103ce906147c2565b801561041b5780601f106103f05761010080835404028352916020019161041b565b820191906000526020600020905b8154815290600101906020018083116103fe57829003601f168201915b50505050508152602001600182018054610434906147c2565b80601f0160208091040260200160405190810160405280929190818152602001828054610460906147c2565b80156104ad5780601f10610482576101008083540402835291602001916104ad565b820191906000526020600020905b81548152906001019060200180831161049057829003601f168201915b505050505081526020016002820160009054906101000a900473ffffffffffffffffffffffffffffffffffffffff1673ffffffffffffffffffffffffffffffffffffffff1673ffffffffffffffffffffffffffffffffffffffff16815260200160038201805461051c906147c2565b80601f0160208091040260200160405190810160405280929190818152602001828054610548906147c2565b80156105955780601f1061056a57610100808354040283529160200191610595565b820191906000526020600020905b81548152906001019060200180831161057857829003601f168201915b505050505081526020016004820180546105ae906147c2565b80601f01602080910402602001604051908101604052809291908181526020018280546105da906147c2565b80156106275780601f106105fc57610100808354040283529160200191610627565b820191906000526020600020905b81548152906001019060200180831161060a57829003601f168201915b50505050508152602001600582018054610640906147c2565b80601f016020809104026020016040519081016040528092919081815260200182805461066c906147c2565b80156106b95780601f1061068e576101008083540402835291602001916106b9565b820191906000526020600020905b81548152906001019060200180831161069c57829003601f168201915b5050505050815250509050806000015181602001518260a00151935093509350509193909250565b60606001805480602002602001604051908101604052809291908181526020016000905b828210156109df57838290600052602060002090600602016040518060c0016040529081600082018054610738906147c2565b80601f0160208091040260200160405190810160405280929190818152602001828054610764906147c2565b80156107b15780601f10610786576101008083540402835291602001916107b1565b820191906000526020600020905b81548152906001019060200180831161079457829003601f168201915b505050505081526020016001820180546107ca906147c2565b80601f01602080910402602001604051908101604052809291908181526020018280546107f6906147c2565b80156108435780601f1061081857610100808354040283529160200191610843565b820191906000526020600020905b81548152906001019060200180831161082657829003601f168201915b5050505050815260200160028201805461085c906147c2565b80601f0160208091040260200160405190810160405280929190818152602001828054610888906147c2565b80156108d55780601f106108aa576101008083540402835291602001916108d5565b820191906000526020600020905b8154815290600101906020018083116108b857829003601f168201915b505050505081526020016003820180546108ee906147c2565b80601f016020809104026020016040519081016040528092919081815260200182805461091a906147c2565b80156109675780601f1061093c57610100808354040283529160200191610967565b820191906000526020600020905b81548152906001019060200180831161094a57829003601f168201915b50505050508152602001600482015481526020016005820160009054906101000a900473ffffffffffffffffffffffffffffffffffffffff1673ffffffffffffffffffffffffffffffffffffffff1673ffffffffffffffffffffffffffffffffffffffff168152505081526020019060010190610705565b50505050905090565b60606000600380549050905060008167ffffffffffffffff811115610a1057610a0f613fcd565b5b604051908082528060200260200182016040528015610a4957816020015b610a36613a6b565b815260200190600190039081610a2e5790505b5090506000805b83811015610cc1578573ffffffffffffffffffffffffffffffffffffffff1660038281548110610a8357610a826147f3565b5b906000526020600020906004020160010160009054906101000a900473ffffffffffffffffffffffffffffffffffffffff1673ffffffffffffffffffffffffffffffffffffffff1603610cae5760038181548110610ae457610ae36147f3565b5b9060005260206000209060040201604051806080016040529081600082018054610b0d906147c2565b80601f0160208091040260200160405190810160405280929190818152602001828054610b39906147c2565b8015610b865780601f10610b5b57610100808354040283529160200191610b86565b820191906000526020600020905b815481529060010190602001808311610b6957829003601f168201915b505050505081526020016001820160009054906101000a900473ffffffffffffffffffffffffffffffffffffffff1673ffffffffffffffffffffffffffffffffffffffff1673ffffffffffffffffffffffffffffffffffffffff16815260200160028201548152602001600382018054610bff906147c2565b80601f0160208091040260200160405190810160405280929190818152602001828054610c2b906147c2565b8015610c785780601f10610c4d57610100808354040283529160200191610c78565b820191906000526020600020905b815481529060010190602001808311610c5b57829003601f168201915b505050505081525050838381518110610c9457610c936147f3565b5b60200260200101819052508180610caa90614851565b9250505b8080610cb990614851565b915050610a50565b50808252819350505050919050565b6000805b600280549050811015610d725760028181548110610cf557610cf46147f3565b5b906000526020600020906006020160020160009054906101000a900473ffffffffffffffffffffffffffffffffffffffff1673ffffffffffffffffffffffffffffffffffffffff163373ffffffffffffffffffffffffffffffffffffffff1603610d5e57600191505b600181610d6b9190614899565b9050610cd4565b5080610db3576040517f08c379a0000000000000000000000000000000000000000000000000000000008152600401610daa9061493f565b60405180910390fd5b6000600586604051610dc5919061499b565b90815260200160405180910390208054905011610e17576040517f08c379a0000000000000000000000000000000000000000000000000000000008152600401610e0e906149fe565b60405180910390fd5b60005b60018054905081101561106b5785604051602001610e38919061499b565b6040516020818303038152906040528051906020012060018281548110610e6257610e616147f3565b5b9060005260206000209060060201600001604051602001610e839190614ab6565b6040516020818303038152906040528051906020012003611058576001808080549050610eb09190614acd565b81548110610ec157610ec06147f3565b5b906000526020600020906006020160018281548110610ee357610ee26147f3565b5b906000526020600020906006020160008201816000019081610f059190614cae565b5060018201816001019081610f1a9190614cae565b5060028201816002019081610f2f9190614cae565b5060038201816003019081610f449190614cae565b50600482015481600401556005820160009054906101000a900473ffffffffffffffffffffffffffffffffffffffff168160050160006101000a81548173ffffffffffffffffffffffffffffffffffffffff021916908373ffffffffffffffffffffffffffffffffffffffff1602179055509050506001805480610fcb57610fca614d96565b5b600190038181906000526020600020906006020160008082016000610ff09190613aa9565b6001820160006110009190613aa9565b6002820160006110109190613aa9565b6003820160006110209190613aa9565b60048201600090556005820160006101000a81549073ffffffffffffffffffffffffffffffffffffffff02191690555050905561106b565b808061106390614851565b915050610e1a565b5060005b600460003373ffffffffffffffffffffffffffffffffffffffff1673ffffffffffffffffffffffffffffffffffffffff1681526020019081526020016000208054905081101561118157856040516020016110ca919061499b565b60405160208183030381529060405280519060200120600460003373ffffffffffffffffffffffffffffffffffffffff1673ffffffffffffffffffffffffffffffffffffffff1681526020019081526020016000208281548110611131576111306147f3565b5b90600052602060002090600602016000016040516020016111529190614ab6565b60405160208183030381529060405280519060200120031561118157808061117990614851565b91505061106f565b600460003373ffffffffffffffffffffffffffffffffffffffff1673ffffffffffffffffffffffffffffffffffffffff168152602001908152602001600020805490508110156114a55760008190505b6001600460003373ffffffffffffffffffffffffffffffffffffffff1673ffffffffffffffffffffffffffffffffffffffff168152602001908152602001600020805490506112209190614acd565b8110156113cc57600460003373ffffffffffffffffffffffffffffffffffffffff1673ffffffffffffffffffffffffffffffffffffffff1681526020019081526020016000206001826112739190614899565b81548110611284576112836147f3565b5b9060005260206000209060060201600460003373ffffffffffffffffffffffffffffffffffffffff1673ffffffffffffffffffffffffffffffffffffffff16815260200190815260200160002082815481106112e3576112e26147f3565b5b9060005260206000209060060201600082018160000190816113059190614cae565b506001820181600101908161131a9190614cae565b506002820181600201908161132f9190614cae565b50600382018160030190816113449190614cae565b50600482015481600401556005820160009054906101000a900473ffffffffffffffffffffffffffffffffffffffff168160050160006101000a81548173ffffffffffffffffffffffffffffffffffffffff021916908373ffffffffffffffffffffffffffffffffffffffff16021790555090505080806113c490614851565b9150506111d1565b50600460003373ffffffffffffffffffffffffffffffffffffffff1673ffffffffffffffffffffffffffffffffffffffff16815260200190815260200160002080548061141c5761141b614d96565b5b6001900381819060005260206000209060060201600080820160006114419190613aa9565b6001820160006114519190613aa9565b6002820160006114619190613aa9565b6003820160006114719190613aa9565b60048201600090556005820160006101000a81549073ffffffffffffffffffffffffffffffffffffffff0219169055505090555b60006040518060c001604052808881526020018781526020018681526020018581526020014281526020013373ffffffffffffffffffffffffffffffffffffffff1681525090506001819080600181540180825580915050600190039060005260206000209060060201600090919091909150600082015181600001908161152d9190614dc5565b5060208201518160010190816115439190614dc5565b5060408201518160020190816115599190614dc5565b50606082015181600301908161156f9190614dc5565b506080820151816004015560a08201518160050160006101000a81548173ffffffffffffffffffffffffffffffffffffffff021916908373ffffffffffffffffffffffffffffffffffffffff1602179055505050806005886040516115d4919061499b565b90815260200160405180910390206000815481106115f5576115f46147f3565b5b906000526020600020906006020160008201518160000190816116189190614dc5565b50602082015181600101908161162e9190614dc5565b5060408201518160020190816116449190614dc5565b50606082015181600301908161165a9190614dc5565b506080820151816004015560a08201518160050160006101000a81548173ffffffffffffffffffffffffffffffffffffffff021916908373ffffffffffffffffffffffffffffffffffffffff160217905550905050600460003373ffffffffffffffffffffffffffffffffffffffff1673ffffffffffffffffffffffffffffffffffffffff168152602001908152602001600020819080600181540180825580915050600190039060005260206000209060060201600090919091909150600082015181600001908161172d9190614dc5565b5060208201518160010190816117439190614dc5565b5060408201518160020190816117599190614dc5565b50606082015181600301908161176f9190614dc5565b506080820151816004015560a08201518160050160006101000a81548173ffffffffffffffffffffffffffffffffffffffff021916908373ffffffffffffffffffffffffffffffffffffffff16021790555050506118386040518060400160405280600d81526020017f4564697420446f63756d656e7400000000000000000000000000000000000000815250336040518060400160405280600781526020017f5375636365737300000000000000000000000000000000000000000000000000815250613942565b50505050505050565b60606003805480602002602001604051908101604052809291908181526020016000905b82821015611a1b5783829060005260206000209060040201604051806080016040529081600082018054611898906147c2565b80601f01602080910402602001604051908101604052809291908181526020018280546118c4906147c2565b80156119115780601f106118e657610100808354040283529160200191611911565b820191906000526020600020905b8154815290600101906020018083116118f457829003601f168201915b505050505081526020016001820160009054906101000a900473ffffffffffffffffffffffffffffffffffffffff1673ffffffffffffffffffffffffffffffffffffffff1673ffffffffffffffffffffffffffffffffffffffff1681526020016002820154815260200160038201805461198a906147c2565b80601f01602080910402602001604051908101604052809291908181526020018280546119b6906147c2565b8015611a035780601f106119d857610100808354040283529160200191611a03565b820191906000526020600020905b8154815290600101906020018083116119e657829003601f168201915b50505050508152505081526020019060010190611865565b50505050905090565b6060600460008373ffffffffffffffffffffffffffffffffffffffff1673ffffffffffffffffffffffffffffffffffffffff168152602001908152602001600020805480602002602001604051908101604052809291908181526020016000905b82821015611d5f57838290600052602060002090600602016040518060c0016040529081600082018054611ab8906147c2565b80601f0160208091040260200160405190810160405280929190818152602001828054611ae4906147c2565b8015611b315780601f10611b0657610100808354040283529160200191611b31565b820191906000526020600020905b815481529060010190602001808311611b1457829003601f168201915b50505050508152602001600182018054611b4a906147c2565b80601f0160208091040260200160405190810160405280929190818152602001828054611b76906147c2565b8015611bc35780601f10611b9857610100808354040283529160200191611bc3565b820191906000526020600020905b815481529060010190602001808311611ba657829003601f168201915b50505050508152602001600282018054611bdc906147c2565b80601f0160208091040260200160405190810160405280929190818152602001828054611c08906147c2565b8015611c555780601f10611c2a57610100808354040283529160200191611c55565b820191906000526020600020905b815481529060010190602001808311611c3857829003601f168201915b50505050508152602001600382018054611c6e906147c2565b80601f0160208091040260200160405190810160405280929190818152602001828054611c9a906147c2565b8015611ce75780601f10611cbc57610100808354040283529160200191611ce7565b820191906000526020600020905b815481529060010190602001808311611cca57829003601f168201915b50505050508152602001600482015481526020016005820160009054906101000a900473ffffffffffffffffffffffffffffffffffffffff1673ffffffffffffffffffffffffffffffffffffffff1673ffffffffffffffffffffffffffffffffffffffff168152505081526020019060010190611a85565b505050509050919050565b60018181548110611d7a57600080fd5b9060005260206000209060060201600091509050806000018054611d9d906147c2565b80601f0160208091040260200160405190810160405280929190818152602001828054611dc9906147c2565b8015611e165780601f10611deb57610100808354040283529160200191611e16565b820191906000526020600020905b815481529060010190602001808311611df957829003601f168201915b505050505090806001018054611e2b906147c2565b80601f0160208091040260200160405190810160405280929190818152602001828054611e57906147c2565b8015611ea45780601f10611e7957610100808354040283529160200191611ea4565b820191906000526020600020905b815481529060010190602001808311611e8757829003601f168201915b505050505090806002018054611eb9906147c2565b80601f0160208091040260200160405190810160405280929190818152602001828054611ee5906147c2565b8015611f325780601f10611f0757610100808354040283529160200191611f32565b820191906000526020600020905b815481529060010190602001808311611f1557829003601f168201915b505050505090806003018054611f47906147c2565b80601f0160208091040260200160405190810160405280929190818152602001828054611f73906147c2565b8015611fc05780601f10611f9557610100808354040283529160200191611fc0565b820191906000526020600020905b815481529060010190602001808311611fa357829003601f168201915b5050505050908060040154908060050160009054906101000a900473ffffffffffffffffffffffffffffffffffffffff16905086565b6000805b600280549050811015612098576002818154811061201b5761201a6147f3565b5b906000526020600020906006020160020160009054906101000a900473ffffffffffffffffffffffffffffffffffffffff1673ffffffffffffffffffffffffffffffffffffffff163373ffffffffffffffffffffffffffffffffffffffff160361208457600191505b6001816120919190614899565b9050611ffa565b50806120d9576040517f08c379a00000000000000000000000000000000000000000000000000000000081526004016120d09061493f565b60405180910390fd5b600085511161211d576040517f08c379a000000000000000000000000000000000000000000000000000000000815260040161211490614ee3565b60405180910390fd5b6000845111612161576040517f08c379a000000000000000000000000000000000000000000000000000000000815260040161215890614f4f565b60405180910390fd5b60008251116121a5576040517f08c379a000000000000000000000000000000000000000000000000000000000815260040161219c90614fbb565b60405180910390fd5b60006040518060c001604052808881526020018781526020018681526020018481526020018581526020013373ffffffffffffffffffffffffffffffffffffffff1681525090506001819080600181540180825580915050600190039060005260206000209060060201600090919091909150600082015181600001908161222d9190614dc5565b5060208201518160010190816122439190614dc5565b5060408201518160020190816122599190614dc5565b50606082015181600301908161226f9190614dc5565b506080820151816004015560a08201518160050160006101000a81548173ffffffffffffffffffffffffffffffffffffffff021916908373ffffffffffffffffffffffffffffffffffffffff16021790555050506005876040516122d3919061499b565b908152602001604051809103902081908060018154018082558091505060019003906000526020600020906006020160009091909190915060008201518160000190816123209190614dc5565b5060208201518160010190816123369190614dc5565b50604082015181600201908161234c9190614dc5565b5060608201518160030190816123629190614dc5565b506080820151816004015560a08201518160050160006101000a81548173ffffffffffffffffffffffffffffffffffffffff021916908373ffffffffffffffffffffffffffffffffffffffff1602179055505050600460003373ffffffffffffffffffffffffffffffffffffffff1673ffffffffffffffffffffffffffffffffffffffff16815260200190815260200160002081908060018154018082558091505060019003906000526020600020906006020160009091909190915060008201518160000190816124349190614dc5565b50602082015181600101908161244a9190614dc5565b5060408201518160020190816124609190614dc5565b5060608201518160030190816124769190614dc5565b506080820151816004015560a08201518160050160006101000a81548173ffffffffffffffffffffffffffffffffffffffff021916908373ffffffffffffffffffffffffffffffffffffffff160217905550505061253f6040518060400160405280600e81526020017f53746f726520446f63756d656e74000000000000000000000000000000000000815250336040518060400160405280600781526020017f5375636365737300000000000000000000000000000000000000000000000000815250613942565b50505050505050565b60008060005b6001805490508110156125c357838051906020012060018281548110612577576125766147f3565b5b9060005260206000209060060201600301604051612595919061507e565b6040518091039020036125ab57600191506125b0565b600091505b80806125bb90614851565b91505061254e565b5080915050919050565b60008054906101000a900473ffffffffffffffffffffffffffffffffffffffff1673ffffffffffffffffffffffffffffffffffffffff163373ffffffffffffffffffffffffffffffffffffffff161461265b576040517f08c379a000000000000000000000000000000000000000000000000000000000815260040161265290615107565b60405180910390fd5b60006040518060c001604052808781526020018681526020018573ffffffffffffffffffffffffffffffffffffffff1681526020018481526020018381526020016040518060400160405280600381526020017f70726f00000000000000000000000000000000000000000000000000000000008152508152509050600281908060018154018082558091505060019003906000526020600020906006020160009091909190915060008201518160000190816127189190614dc5565b50602082015181600101908161272e9190614dc5565b5060408201518160020160006101000a81548173ffffffffffffffffffffffffffffffffffffffff021916908373ffffffffffffffffffffffffffffffffffffffff160217905550606082015181600301908161278b9190614dc5565b5060808201518160040190816127a19190614dc5565b5060a08201518160050190816127b79190614dc5565b5050506040518060400160405280600381526020017f70726f0000000000000000000000000000000000000000000000000000000000815250600660008673ffffffffffffffffffffffffffffffffffffffff1673ffffffffffffffffffffffffffffffffffffffff168152602001908152602001600020600501908161283e9190614dc5565b506128b46040518060400160405280600781526020017f4164642050726f00000000000000000000000000000000000000000000000000815250336040518060400160405280600781526020017f5375636365737300000000000000000000000000000000000000000000000000815250613942565b505050505050565b600281815481106128cc57600080fd5b90600052602060002090600602016000915090508060000180546128ef906147c2565b80601f016020809104026020016040519081016040528092919081815260200182805461291b906147c2565b80156129685780601f1061293d57610100808354040283529160200191612968565b820191906000526020600020905b81548152906001019060200180831161294b57829003601f168201915b50505050509080600101805461297d906147c2565b80601f01602080910402602001604051908101604052809291908181526020018280546129a9906147c2565b80156129f65780601f106129cb576101008083540402835291602001916129f6565b820191906000526020600020905b8154815290600101906020018083116129d957829003601f168201915b5050505050908060020160009054906101000a900473ffffffffffffffffffffffffffffffffffffffff1690806003018054612a31906147c2565b80601f0160208091040260200160405190810160405280929190818152602001828054612a5d906147c2565b8015612aaa5780601f10612a7f57610100808354040283529160200191612aaa565b820191906000526020600020905b815481529060010190602001808311612a8d57829003601f168201915b505050505090806004018054612abf906147c2565b80601f0160208091040260200160405190810160405280929190818152602001828054612aeb906147c2565b8015612b385780601f10612b0d57610100808354040283529160200191612b38565b820191906000526020600020905b815481529060010190602001808311612b1b57829003601f168201915b505050505090806005018054612b4d906147c2565b80601f0160208091040260200160405190810160405280929190818152602001828054612b79906147c2565b8015612bc65780601f10612b9b57610100808354040283529160200191612bc6565b820191906000526020600020905b815481529060010190602001808311612ba957829003601f168201915b5050505050905086565b60038181548110612be057600080fd5b9060005260206000209060040201600091509050806000018054612c03906147c2565b80601f0160208091040260200160405190810160405280929190818152602001828054612c2f906147c2565b8015612c7c5780601f10612c5157610100808354040283529160200191612c7c565b820191906000526020600020905b815481529060010190602001808311612c5f57829003601f168201915b5050505050908060010160009054906101000a900473ffffffffffffffffffffffffffffffffffffffff1690806002015490806003018054612cbd906147c2565b80601f0160208091040260200160405190810160405280929190818152602001828054612ce9906147c2565b8015612d365780601f10612d0b57610100808354040283529160200191612d36565b820191906000526020600020905b815481529060010190602001808311612d1957829003601f168201915b5050505050905084565b6000805b600280549050811015612de25760028181548110612d6557612d646147f3565b5b906000526020600020906006020160020160009054906101000a900473ffffffffffffffffffffffffffffffffffffffff1673ffffffffffffffffffffffffffffffffffffffff163373ffffffffffffffffffffffffffffffffffffffff1603612dce57600191505b600181612ddb9190614899565b9050612d44565b5080612e23576040517f08c379a0000000000000000000000000000000000000000000000000000000008152600401612e1a9061493f565b60405180910390fd5b6000600583604051612e35919061499b565b90815260200160405180910390208054905011612e87576040517f08c379a0000000000000000000000000000000000000000000000000000000008152600401612e7e906149fe565b60405180910390fd5b60005b6001805490508110156130db5782604051602001612ea8919061499b565b6040516020818303038152906040528051906020012060018281548110612ed257612ed16147f3565b5b9060005260206000209060060201600001604051602001612ef39190614ab6565b60405160208183030381529060405280519060200120036130c8576001808080549050612f209190614acd565b81548110612f3157612f306147f3565b5b906000526020600020906006020160018281548110612f5357612f526147f3565b5b906000526020600020906006020160008201816000019081612f759190614cae565b5060018201816001019081612f8a9190614cae565b5060028201816002019081612f9f9190614cae565b5060038201816003019081612fb49190614cae565b50600482015481600401556005820160009054906101000a900473ffffffffffffffffffffffffffffffffffffffff168160050160006101000a81548173ffffffffffffffffffffffffffffffffffffffff021916908373ffffffffffffffffffffffffffffffffffffffff160217905550905050600180548061303b5761303a614d96565b5b6001900381819060005260206000209060060201600080820160006130609190613aa9565b6001820160006130709190613aa9565b6002820160006130809190613aa9565b6003820160006130909190613aa9565b60048201600090556005820160006101000a81549073ffffffffffffffffffffffffffffffffffffffff0219169055505090556130db565b80806130d390614851565b915050612e8a565b5060005b600460003373ffffffffffffffffffffffffffffffffffffffff1673ffffffffffffffffffffffffffffffffffffffff168152602001908152602001600020805490508110156131f1578260405160200161313a919061499b565b60405160208183030381529060405280519060200120600460003373ffffffffffffffffffffffffffffffffffffffff1673ffffffffffffffffffffffffffffffffffffffff16815260200190815260200160002082815481106131a1576131a06147f3565b5b90600052602060002090600602016000016040516020016131c29190614ab6565b6040516020818303038152906040528051906020012003156131f15780806131e990614851565b9150506130df565b600460003373ffffffffffffffffffffffffffffffffffffffff1673ffffffffffffffffffffffffffffffffffffffff168152602001908152602001600020805490508110156135155760008190505b6001600460003373ffffffffffffffffffffffffffffffffffffffff1673ffffffffffffffffffffffffffffffffffffffff168152602001908152602001600020805490506132909190614acd565b81101561343c57600460003373ffffffffffffffffffffffffffffffffffffffff1673ffffffffffffffffffffffffffffffffffffffff1681526020019081526020016000206001826132e39190614899565b815481106132f4576132f36147f3565b5b9060005260206000209060060201600460003373ffffffffffffffffffffffffffffffffffffffff1673ffffffffffffffffffffffffffffffffffffffff1681526020019081526020016000208281548110613353576133526147f3565b5b9060005260206000209060060201600082018160000190816133759190614cae565b506001820181600101908161338a9190614cae565b506002820181600201908161339f9190614cae565b50600382018160030190816133b49190614cae565b50600482015481600401556005820160009054906101000a900473ffffffffffffffffffffffffffffffffffffffff168160050160006101000a81548173ffffffffffffffffffffffffffffffffffffffff021916908373ffffffffffffffffffffffffffffffffffffffff160217905550905050808061343490614851565b915050613241565b50600460003373ffffffffffffffffffffffffffffffffffffffff1673ffffffffffffffffffffffffffffffffffffffff16815260200190815260200160002080548061348c5761348b614d96565b5b6001900381819060005260206000209060060201600080820160006134b19190613aa9565b6001820160006134c19190613aa9565b6002820160006134d19190613aa9565b6003820160006134e19190613aa9565b60048201600090556005820160006101000a81549073ffffffffffffffffffffffffffffffffffffffff0219169055505090555b61358a6040518060400160405280600f81526020017f44656c65746520446f63756d656e740000000000000000000000000000000000815250336040518060400160405280600781526020017f5375636365737300000000000000000000000000000000000000000000000000815250613942565b505050565b60606002805480602002602001604051908101604052809291908181526020016000905b8282101561391557838290600052602060002090600602016040518060c00160405290816000820180546135e6906147c2565b80601f0160208091040260200160405190810160405280929190818152602001828054613612906147c2565b801561365f5780601f106136345761010080835404028352916020019161365f565b820191906000526020600020905b81548152906001019060200180831161364257829003601f168201915b50505050508152602001600182018054613678906147c2565b80601f01602080910402602001604051908101604052809291908181526020018280546136a4906147c2565b80156136f15780601f106136c6576101008083540402835291602001916136f1565b820191906000526020600020905b8154815290600101906020018083116136d457829003601f168201915b505050505081526020016002820160009054906101000a900473ffffffffffffffffffffffffffffffffffffffff1673ffffffffffffffffffffffffffffffffffffffff1673ffffffffffffffffffffffffffffffffffffffff168152602001600382018054613760906147c2565b80601f016020809104026020016040519081016040528092919081815260200182805461378c906147c2565b80156137d95780601f106137ae576101008083540402835291602001916137d9565b820191906000526020600020905b8154815290600101906020018083116137bc57829003601f168201915b505050505081526020016004820180546137f2906147c2565b80601f016020809104026020016040519081016040528092919081815260200182805461381e906147c2565b801561386b5780601f106138405761010080835404028352916020019161386b565b820191906000526020600020905b81548152906001019060200180831161384e57829003601f168201915b50505050508152602001600582018054613884906147c2565b80601f01602080910402602001604051908101604052809291908181526020018280546138b0906147c2565b80156138fd5780601f106138d2576101008083540402835291602001916138fd565b820191906000526020600020905b8154815290600101906020018083116138e057829003601f168201915b505050505081525050815260200190600101906135b3565b50505050905090565b60008054906101000a900473ffffffffffffffffffffffffffffffffffffffff1681565b600060405180608001604052808581526020018473ffffffffffffffffffffffffffffffffffffffff168152602001428152602001838152509050600381908060018154018082558091505060019003906000526020600020906004020160009091909190915060008201518160000190816139be9190614dc5565b5060208201518160010160006101000a81548173ffffffffffffffffffffffffffffffffffffffff021916908373ffffffffffffffffffffffffffffffffffffffff160217905550604082015181600201556060820151816003019081613a259190614dc5565b5050507f9777ca6a69ece45e669964ff3754987bbc86d13fed4bb38a3b25774a0aa79c1084844285604051613a5d949392919061459c565b60405180910390a150505050565b604051806080016040528060608152602001600073ffffffffffffffffffffffffffffffffffffffff16815260200160008152602001606081525090565b508054613ab5906147c2565b6000825580601f10613ac75750613ae6565b601f016020900490600052602060002090810190613ae59190613ae9565b5b50565b5b80821115613b02576000816000905550600101613aea565b5090565b6000604051905090565b600080fd5b600080fd5b600073ffffffffffffffffffffffffffffffffffffffff82169050919050565b6000613b4582613b1a565b9050919050565b613b5581613b3a565b8114613b6057600080fd5b50565b600081359050613b7281613b4c565b92915050565b600060208284031215613b8e57613b8d613b10565b5b6000613b9c84828501613b63565b91505092915050565b600081519050919050565b600082825260208201905092915050565b60005b83811015613bdf578082015181840152602081019050613bc4565b60008484015250505050565b6000601f19601f8301169050919050565b6000613c0782613ba5565b613c118185613bb0565b9350613c21818560208601613bc1565b613c2a81613beb565b840191505092915050565b60006060820190508181036000830152613c4f8186613bfc565b90508181036020830152613c638185613bfc565b90508181036040830152613c778184613bfc565b9050949350505050565b600081519050919050565b600082825260208201905092915050565b6000819050602082019050919050565b600082825260208201905092915050565b6000613cc982613ba5565b613cd38185613cad565b9350613ce3818560208601613bc1565b613cec81613beb565b840191505092915050565b6000819050919050565b613d0a81613cf7565b82525050565b613d1981613b3a565b82525050565b600060c0830160008301518482036000860152613d3c8282613cbe565b91505060208301518482036020860152613d568282613cbe565b91505060408301518482036040860152613d708282613cbe565b91505060608301518482036060860152613d8a8282613cbe565b9150506080830151613d9f6080860182613d01565b5060a0830151613db260a0860182613d10565b508091505092915050565b6000613dc98383613d1f565b905092915050565b6000602082019050919050565b6000613de982613c81565b613df38185613c8c565b935083602082028501613e0585613c9d565b8060005b85811015613e415784840389528151613e228582613dbd565b9450613e2d83613dd1565b925060208a01995050600181019050613e09565b50829750879550505050505092915050565b60006020820190508181036000830152613e6d8184613dde565b905092915050565b600081519050919050565b600082825260208201905092915050565b6000819050602082019050919050565b60006080830160008301518482036000860152613ebe8282613cbe565b9150506020830151613ed36020860182613d10565b506040830151613ee66040860182613d01565b5060608301518482036060860152613efe8282613cbe565b9150508091505092915050565b6000613f178383613ea1565b905092915050565b6000602082019050919050565b6000613f3782613e75565b613f418185613e80565b935083602082028501613f5385613e91565b8060005b85811015613f8f5784840389528151613f708582613f0b565b9450613f7b83613f1f565b925060208a01995050600181019050613f57565b50829750879550505050505092915050565b60006020820190508181036000830152613fbb8184613f2c565b905092915050565b600080fd5b600080fd5b7f4e487b7100000000000000000000000000000000000000000000000000000000600052604160045260246000fd5b61400582613beb565b810181811067ffffffffffffffff8211171561402457614023613fcd565b5b80604052505050565b6000614037613b06565b90506140438282613ffc565b919050565b600067ffffffffffffffff82111561406357614062613fcd565b5b61406c82613beb565b9050602081019050919050565b82818337600083830152505050565b600061409b61409684614048565b61402d565b9050828152602081018484840111156140b7576140b6613fc8565b5b6140c2848285614079565b509392505050565b600082601f8301126140df576140de613fc3565b5b81356140ef848260208601614088565b91505092915050565b6000806000806080858703121561411257614111613b10565b5b600085013567ffffffffffffffff8111156141305761412f613b15565b5b61413c878288016140ca565b945050602085013567ffffffffffffffff81111561415d5761415c613b15565b5b614169878288016140ca565b935050604085013567ffffffffffffffff81111561418a57614189613b15565b5b614196878288016140ca565b925050606085013567ffffffffffffffff8111156141b7576141b6613b15565b5b6141c3878288016140ca565b91505092959194509250565b6141d881613cf7565b81146141e357600080fd5b50565b6000813590506141f5816141cf565b92915050565b60006020828403121561421157614210613b10565b5b600061421f848285016141e6565b91505092915050565b61423181613cf7565b82525050565b61424081613b3a565b82525050565b600060c08201905081810360008301526142608189613bfc565b905081810360208301526142748188613bfc565b905081810360408301526142888187613bfc565b9050818103606083015261429c8186613bfc565b90506142ab6080830185614228565b6142b860a0830184614237565b979650505050505050565b600080600080600060a086880312156142df576142de613b10565b5b600086013567ffffffffffffffff8111156142fd576142fc613b15565b5b614309888289016140ca565b955050602086013567ffffffffffffffff81111561432a57614329613b15565b5b614336888289016140ca565b945050604086013567ffffffffffffffff81111561435757614356613b15565b5b614363888289016140ca565b9350506060614374888289016141e6565b925050608086013567ffffffffffffffff81111561439557614394613b15565b5b6143a1888289016140ca565b9150509295509295909350565b6000602082840312156143c4576143c3613b10565b5b600082013567ffffffffffffffff8111156143e2576143e1613b15565b5b6143ee848285016140ca565b91505092915050565b60008115159050919050565b61440c816143f7565b82525050565b60006020820190506144276000830184614403565b92915050565b600080600080600060a0868803121561444957614448613b10565b5b600086013567ffffffffffffffff81111561446757614466613b15565b5b614473888289016140ca565b955050602086013567ffffffffffffffff81111561449457614493613b15565b5b6144a0888289016140ca565b94505060406144b188828901613b63565b935050606086013567ffffffffffffffff8111156144d2576144d1613b15565b5b6144de888289016140ca565b925050608086013567ffffffffffffffff8111156144ff576144fe613b15565b5b61450b888289016140ca565b9150509295509295909350565b600060c08201905081810360008301526145328189613bfc565b905081810360208301526145468188613bfc565b90506145556040830187614237565b81810360608301526145678186613bfc565b9050818103608083015261457b8185613bfc565b905081810360a083015261458f8184613bfc565b9050979650505050505050565b600060808201905081810360008301526145b68187613bfc565b90506145c56020830186614237565b6145d26040830185614228565b81810360608301526145e48184613bfc565b905095945050505050565b600081519050919050565b600082825260208201905092915050565b6000819050602082019050919050565b600060c08301600083015184820360008601526146388282613cbe565b915050602083015184820360208601526146528282613cbe565b91505060408301516146676040860182613d10565b506060830151848203606086015261467f8282613cbe565b915050608083015184820360808601526146998282613cbe565b91505060a083015184820360a08601526146b38282613cbe565b9150508091505092915050565b60006146cc838361461b565b905092915050565b6000602082019050919050565b60006146ec826145ef565b6146f681856145fa565b9350836020820285016147088561460b565b8060005b85811015614744578484038952815161472585826146c0565b9450614730836146d4565b925060208a0199505060018101905061470c565b50829750879550505050505092915050565b6000602082019050818103600083015261477081846146e1565b905092915050565b600060208201905061478d6000830184614237565b92915050565b7f4e487b7100000000000000000000000000000000000000000000000000000000600052602260045260246000fd5b600060028204905060018216806147da57607f821691505b6020821081036147ed576147ec614793565b5b50919050565b7f4e487b7100000000000000000000000000000000000000000000000000000000600052603260045260246000fd5b7f4e487b7100000000000000000000000000000000000000000000000000000000600052601160045260246000fd5b600061485c82613cf7565b91507fffffffffffffffffffffffffffffffffffffffffffffffffffffffffffffffff820361488e5761488d614822565b5b600182019050919050565b60006148a482613cf7565b91506148af83613cf7565b92508282019050808211156148c7576148c6614822565b5b92915050565b7f6f6e6c79206964656e74697479206f776e657220697320616c6c6f776564207460008201527f6f20706572666f726d207468697320416374696f6e0000000000000000000000602082015250565b6000614929603583613bb0565b9150614934826148cd565b604082019050919050565b600060208201905081810360008301526149588161491c565b9050919050565b600081905092915050565b600061497582613ba5565b61497f818561495f565b935061498f818560208601613bc1565b80840191505092915050565b60006149a7828461496a565b915081905092915050565b7f446f63756d656e74206e6f7420666f756e640000000000000000000000000000600082015250565b60006149e8601283613bb0565b91506149f3826149b2565b602082019050919050565b60006020820190508181036000830152614a17816149db565b9050919050565b60008190508160005260206000209050919050565b60008154614a40816147c2565b614a4a818661495f565b94506001821660008114614a655760018114614a7a57614aad565b60ff1983168652811515820286019350614aad565b614a8385614a1e565b60005b83811015614aa557815481890152600182019150602081019050614a86565b838801955050505b50505092915050565b6000614ac28284614a33565b915081905092915050565b6000614ad882613cf7565b9150614ae383613cf7565b9250828203905081811115614afb57614afa614822565b5b92915050565b600081549050614b10816147c2565b9050919050565b60006020601f8301049050919050565b600082821b905092915050565b600060088302614b647fffffffffffffffffffffffffffffffffffffffffffffffffffffffffffffffff82614b27565b614b6e8683614b27565b95508019841693508086168417925050509392505050565b6000819050919050565b6000614bab614ba6614ba184613cf7565b614b86565b613cf7565b9050919050565b6000819050919050565b614bc583614b90565b614bd9614bd182614bb2565b848454614b34565b825550505050565b600090565b614bee614be1565b614bf9818484614bbc565b505050565b5b81811015614c1d57614c12600082614be6565b600181019050614bff565b5050565b601f821115614c6257614c3381614a1e565b614c3c84614b17565b81016020851015614c4b578190505b614c5f614c5785614b17565b830182614bfe565b50505b505050565b600082821c905092915050565b6000614c8560001984600802614c67565b1980831691505092915050565b6000614c9e8383614c74565b9150826002028217905092915050565b818103614cbc575050614d94565b614cc582614b01565b67ffffffffffffffff811115614cde57614cdd613fcd565b5b614ce882546147c2565b614cf3828285614c21565b6000601f831160018114614d225760008415614d10578287015490505b614d1a8582614c92565b865550614d8d565b601f198416614d3087614a1e565b9650614d3b86614a1e565b60005b82811015614d6357848901548255600182019150600185019450602081019050614d3e565b86831015614d805784890154614d7c601f891682614c74565b8355505b6001600288020188555050505b5050505050505b565b7f4e487b7100000000000000000000000000000000000000000000000000000000600052603160045260246000fd5b614dce82613ba5565b67ffffffffffffffff811115614de757614de6613fcd565b5b614df182546147c2565b614dfc828285614c21565b600060209050601f831160018114614e2f5760008415614e1d578287015190505b614e278582614c92565b865550614e8f565b601f198416614e3d86614a1e565b60005b82811015614e6557848901518255600182019150602085019450602081019050614e40565b86831015614e825784890151614e7e601f891682614c74565b8355505b6001600288020188555050505b505050505050565b7f5469746c652063616e6e6f7420626520656d7074790000000000000000000000600082015250565b6000614ecd601583613bb0565b9150614ed882614e97565b602082019050919050565b60006020820190508181036000830152614efc81614ec0565b9050919050565b7f4465736372697074696f6e2063616e6e6f7420626520656d7074790000000000600082015250565b6000614f39601b83613bb0565b9150614f4482614f03565b602082019050919050565b60006020820190508181036000830152614f6881614f2c565b9050919050565b7f4950465320686173682063616e6e6f7420626520656d70747900000000000000600082015250565b6000614fa5601983613bb0565b9150614fb082614f6f565b602082019050919050565b60006020820190508181036000830152614fd481614f98565b9050919050565b600081905092915050565b60008190508160005260206000209050919050565b60008154615008816147c2565b6150128186614fdb565b9450600182166000811461502d576001811461504257615075565b60ff1983168652811515820286019350615075565b61504b85614fe6565b60005b8381101561506d5781548189015260018201915060208101905061504e565b838801955050505b50505092915050565b600061508a8284614ffb565b915081905092915050565b7f536563546f6f6c2041646d696e206163636f756e74206973207265717569726560008201527f6400000000000000000000000000000000000000000000000000000000000000602082015250565b60006150f1602183613bb0565b91506150fc82615095565b604082019050919050565b60006020820190508181036000830152615120816150e4565b905091905056fea2646970667358221220cf6c0ab9b09dba7060174fb040e525b8be66465e09ce7a022f842c3eaa98205664736f6c63430008130033",
  "linkReferences": {},
  "deployedLinkReferences": {}
}